{
  "_format": "hh-sol-artifact-1",
  "contractName": "WavePortal",
  "sourceName": "contracts/WavePortal.sol",
  "abi": [
    {
      "inputs": [],
      "stateMutability": "payable",
      "type": "constructor"
    },
    {
      "anonymous": false,
      "inputs": [
        {
          "indexed": true,
          "internalType": "address",
          "name": "from",
          "type": "address"
        },
        {
          "indexed": false,
          "internalType": "uint256",
          "name": "timestamp",
          "type": "uint256"
        },
        {
          "indexed": false,
          "internalType": "string",
          "name": "message",
          "type": "string"
        }
      ],
      "name": "NewWave",
      "type": "event"
    },
    {
      "inputs": [],
      "name": "getAllWaves",
      "outputs": [
        {
          "components": [
            {
              "internalType": "address",
              "name": "waver",
              "type": "address"
            },
            {
              "internalType": "string",
              "name": "message",
              "type": "string"
            },
            {
              "internalType": "uint256",
              "name": "timestamp",
              "type": "uint256"
            }
          ],
          "internalType": "struct WavePortal.Wave[]",
          "name": "",
          "type": "tuple[]"
        }
      ],
      "stateMutability": "view",
      "type": "function"
    },
    {
      "inputs": [],
      "name": "getTotalWaves",
      "outputs": [
        {
          "internalType": "uint256",
          "name": "",
          "type": "uint256"
        }
      ],
      "stateMutability": "view",
      "type": "function"
    },
    {
      "inputs": [
        {
          "internalType": "address",
          "name": "",
          "type": "address"
        }
      ],
      "name": "lastWaveAt",
      "outputs": [
        {
          "internalType": "uint256",
          "name": "",
          "type": "uint256"
        }
      ],
      "stateMutability": "view",
      "type": "function"
    },
    {
      "inputs": [
        {
          "internalType": "string",
          "name": "_message",
          "type": "string"
        }
      ],
      "name": "wave",
      "outputs": [],
      "stateMutability": "nonpayable",
      "type": "function"
    }
  ],
  "bytecode": "0x60806040526200004f6040518060400160405280601981526020017f57652068617665206265656e20636f6e737472756374656421000000000000008152506200007760201b620006c61760201c565b606444426200005f91906200017c565b6200006b9190620001e6565b600181905550620002dc565b62000117816040516024016200008e9190620002b8565b6040516020818303038152906040527f41304fac000000000000000000000000000000000000000000000000000000007bffffffffffffffffffffffffffffffffffffffffffffffffffffffff19166020820180517bffffffffffffffffffffffffffffffffffffffffffffffffffffffff83818316178352505050506200011a60201b60201c565b50565b60008151905060006a636f6e736f6c652e6c6f679050602083016000808483855afa5050505050565b6000819050919050565b7f4e487b7100000000000000000000000000000000000000000000000000000000600052601160045260246000fd5b6000620001898262000143565b9150620001968362000143565b9250828201905080821115620001b157620001b06200014d565b5b92915050565b7f4e487b7100000000000000000000000000000000000000000000000000000000600052601260045260246000fd5b6000620001f38262000143565b9150620002008362000143565b925082620002135762000212620001b7565b5b828206905092915050565b600081519050919050565b600082825260208201905092915050565b60005b838110156200025a5780820151818401526020810190506200023d565b60008484015250505050565b6000601f19601f8301169050919050565b600062000284826200021e565b62000290818562000229565b9350620002a28185602086016200023a565b620002ad8162000266565b840191505092915050565b60006020820190508181036000830152620002d4818462000277565b905092915050565b61148f80620002ec6000396000f3fe608060405234801561001057600080fd5b506004361061004c5760003560e01c8063449d46c0146100515780639a2cdc081461006d578063bd43a9081461008b578063cb199503146100a9575b600080fd5b61006b60048036038101906100669190610ab9565b6100d9565b005b610075610512565b6040516100829190610b1b565b60405180910390f35b61009361055d565b6040516100a09190610d17565b60405180910390f35b6100c360048036038101906100be9190610d65565b6106ae565b6040516100d09190610b1b565b60405180910390f35b42610384600360003373ffffffffffffffffffffffffffffffffffffffff1673ffffffffffffffffffffffffffffffffffffffff168152602001908152602001600020546101279190610dc1565b10610167576040517f08c379a000000000000000000000000000000000000000000000000000000000815260040161015e90610e52565b60405180910390fd5b42600360003373ffffffffffffffffffffffffffffffffffffffff1673ffffffffffffffffffffffffffffffffffffffff1681526020019081526020016000208190555060016000808282546101bd9190610dc1565b925050819055506102046040518060400160405280601681526020017f257320776176656420772f206d65737361676520257300000000000000000000815250338361075f565b600260405180606001604052803373ffffffffffffffffffffffffffffffffffffffff16815260200183815260200142815250908060018154018082558091505060019003906000526020600020906003020160009091909190915060008201518160000160006101000a81548173ffffffffffffffffffffffffffffffffffffffff021916908373ffffffffffffffffffffffffffffffffffffffff16021790555060208201518160010190816102bc919061107e565b50604082015181600201555050606460015442446102da9190610dc1565b6102e49190610dc1565b6102ee919061117f565b6001819055506103356040518060400160405280601681526020017f52616e646f6d20232067656e6572617465643a202564000000000000000000008152506001546107fe565b60326001541161047f5761037e6040518060400160405280600781526020017f257320776f6e21000000000000000000000000000000000000000000000000008152503361089a565b6000655af3107a40009050478111156103cc576040517f08c379a00000000000000000000000000000000000000000000000000000000081526004016103c390611222565b60405180910390fd5b60003373ffffffffffffffffffffffffffffffffffffffff16826040516103f290611273565b60006040518083038185875af1925050503d806000811461042f576040519150601f19603f3d011682016040523d82523d6000602084013e610434565b606091505b5050905080610478576040517f08c379a000000000000000000000000000000000000000000000000000000000815260040161046f906112fa565b60405180910390fd5b50506104bf565b6104be6040518060400160405280600f81526020017f257320646966206e6f742077696e2e00000000000000000000000000000000008152503361089a565b5b3373ffffffffffffffffffffffffffffffffffffffff167f5f7e16dc676677766a70e9c5628aa6c54ddb8b6e5188e2ae1e1f17f1ffbea7164283604051610507929190611353565b60405180910390a250565b60006105556040518060400160405280601781526020017f5765206861766520257320746f74616c207761766573210000000000000000008152506000546107fe565b600054905090565b60606002805480602002602001604051908101604052809291908181526020016000905b828210156106a557838290600052602060002090600302016040518060600160405290816000820160009054906101000a900473ffffffffffffffffffffffffffffffffffffffff1673ffffffffffffffffffffffffffffffffffffffff1673ffffffffffffffffffffffffffffffffffffffff16815260200160018201805461060a90610ea1565b80601f016020809104026020016040519081016040528092919081815260200182805461063690610ea1565b80156106835780601f1061065857610100808354040283529160200191610683565b820191906000526020600020905b81548152906001019060200180831161066657829003601f168201915b5050505050815260200160028201548152505081526020019060010190610581565b50505050905090565b60036020528060005260406000206000915090505481565b61075c816040516024016106da9190611383565b6040516020818303038152906040527f41304fac000000000000000000000000000000000000000000000000000000007bffffffffffffffffffffffffffffffffffffffffffffffffffffffff19166020820180517bffffffffffffffffffffffffffffffffffffffffffffffffffffffff8381831617835250505050610936565b50565b6107f9838383604051602401610777939291906113b4565b6040516020818303038152906040527fe0e9ad4f000000000000000000000000000000000000000000000000000000007bffffffffffffffffffffffffffffffffffffffffffffffffffffffff19166020820180517bffffffffffffffffffffffffffffffffffffffffffffffffffffffff8381831617835250505050610936565b505050565b61089682826040516024016108149291906113f9565b6040516020818303038152906040527fb60e72cc000000000000000000000000000000000000000000000000000000007bffffffffffffffffffffffffffffffffffffffffffffffffffffffff19166020820180517bffffffffffffffffffffffffffffffffffffffffffffffffffffffff8381831617835250505050610936565b5050565b61093282826040516024016108b0929190611429565b6040516020818303038152906040527f319af333000000000000000000000000000000000000000000000000000000007bffffffffffffffffffffffffffffffffffffffffffffffffffffffff19166020820180517bffffffffffffffffffffffffffffffffffffffffffffffffffffffff8381831617835250505050610936565b5050565b60008151905060006a636f6e736f6c652e6c6f679050602083016000808483855afa5050505050565b6000604051905090565b600080fd5b600080fd5b600080fd5b600080fd5b6000601f19601f8301169050919050565b7f4e487b7100000000000000000000000000000000000000000000000000000000600052604160045260246000fd5b6109c68261097d565b810181811067ffffffffffffffff821117156109e5576109e461098e565b5b80604052505050565b60006109f861095f565b9050610a0482826109bd565b919050565b600067ffffffffffffffff821115610a2457610a2361098e565b5b610a2d8261097d565b9050602081019050919050565b82818337600083830152505050565b6000610a5c610a5784610a09565b6109ee565b905082815260208101848484011115610a7857610a77610978565b5b610a83848285610a3a565b509392505050565b600082601f830112610aa057610a9f610973565b5b8135610ab0848260208601610a49565b91505092915050565b600060208284031215610acf57610ace610969565b5b600082013567ffffffffffffffff811115610aed57610aec61096e565b5b610af984828501610a8b565b91505092915050565b6000819050919050565b610b1581610b02565b82525050565b6000602082019050610b306000830184610b0c565b92915050565b600081519050919050565b600082825260208201905092915050565b6000819050602082019050919050565b600073ffffffffffffffffffffffffffffffffffffffff82169050919050565b6000610b8d82610b62565b9050919050565b610b9d81610b82565b82525050565b600081519050919050565b600082825260208201905092915050565b60005b83811015610bdd578082015181840152602081019050610bc2565b60008484015250505050565b6000610bf482610ba3565b610bfe8185610bae565b9350610c0e818560208601610bbf565b610c178161097d565b840191505092915050565b610c2b81610b02565b82525050565b6000606083016000830151610c496000860182610b94565b5060208301518482036020860152610c618282610be9565b9150506040830151610c766040860182610c22565b508091505092915050565b6000610c8d8383610c31565b905092915050565b6000602082019050919050565b6000610cad82610b36565b610cb78185610b41565b935083602082028501610cc985610b52565b8060005b85811015610d055784840389528151610ce68582610c81565b9450610cf183610c95565b925060208a01995050600181019050610ccd565b50829750879550505050505092915050565b60006020820190508181036000830152610d318184610ca2565b905092915050565b610d4281610b82565b8114610d4d57600080fd5b50565b600081359050610d5f81610d39565b92915050565b600060208284031215610d7b57610d7a610969565b5b6000610d8984828501610d50565b91505092915050565b7f4e487b7100000000000000000000000000000000000000000000000000000000600052601160045260246000fd5b6000610dcc82610b02565b9150610dd783610b02565b9250828201905080821115610def57610dee610d92565b5b92915050565b600082825260208201905092915050565b7f576169742031356d000000000000000000000000000000000000000000000000600082015250565b6000610e3c600883610df5565b9150610e4782610e06565b602082019050919050565b60006020820190508181036000830152610e6b81610e2f565b9050919050565b7f4e487b7100000000000000000000000000000000000000000000000000000000600052602260045260246000fd5b60006002820490506001821680610eb957607f821691505b602082108103610ecc57610ecb610e72565b5b50919050565b60008190508160005260206000209050919050565b60006020601f8301049050919050565b600082821b905092915050565b600060088302610f347fffffffffffffffffffffffffffffffffffffffffffffffffffffffffffffffff82610ef7565b610f3e8683610ef7565b95508019841693508086168417925050509392505050565b6000819050919050565b6000610f7b610f76610f7184610b02565b610f56565b610b02565b9050919050565b6000819050919050565b610f9583610f60565b610fa9610fa182610f82565b848454610f04565b825550505050565b600090565b610fbe610fb1565b610fc9818484610f8c565b505050565b5b81811015610fed57610fe2600082610fb6565b600181019050610fcf565b5050565b601f8211156110325761100381610ed2565b61100c84610ee7565b8101602085101561101b578190505b61102f61102785610ee7565b830182610fce565b50505b505050565b600082821c905092915050565b600061105560001984600802611037565b1980831691505092915050565b600061106e8383611044565b9150826002028217905092915050565b61108782610ba3565b67ffffffffffffffff8111156110a05761109f61098e565b5b6110aa8254610ea1565b6110b5828285610ff1565b600060209050601f8311600181146110e857600084156110d6578287015190505b6110e08582611062565b865550611148565b601f1984166110f686610ed2565b60005b8281101561111e578489015182556001820191506020850194506020810190506110f9565b8683101561113b5784890151611137601f891682611044565b8355505b6001600288020188555050505b505050505050565b7f4e487b7100000000000000000000000000000000000000000000000000000000600052601260045260246000fd5b600061118a82610b02565b915061119583610b02565b9250826111a5576111a4611150565b5b828206905092915050565b7f547279696e6720746f207769746864726177206d6f7265206d6f6e657920746860008201527f616e2074686520636f6e74726163742068617300000000000000000000000000602082015250565b600061120c603383610df5565b9150611217826111b0565b604082019050919050565b6000602082019050818103600083015261123b816111ff565b9050919050565b600081905092915050565b50565b600061125d600083611242565b91506112688261124d565b600082019050919050565b600061127e82611250565b9150819050919050565b7f4661696c656420746f207769746864726177206d6f6e65792066726f6d20636f60008201527f6e74726163740000000000000000000000000000000000000000000000000000602082015250565b60006112e4602683610df5565b91506112ef82611288565b604082019050919050565b60006020820190508181036000830152611313816112d7565b9050919050565b600061132582610ba3565b61132f8185610df5565b935061133f818560208601610bbf565b6113488161097d565b840191505092915050565b60006040820190506113686000830185610b0c565b818103602083015261137a818461131a565b90509392505050565b6000602082019050818103600083015261139d818461131a565b905092915050565b6113ae81610b82565b82525050565b600060608201905081810360008301526113ce818661131a565b90506113dd60208301856113a5565b81810360408301526113ef818461131a565b9050949350505050565b60006040820190508181036000830152611413818561131a565b90506114226020830184610b0c565b9392505050565b60006040820190508181036000830152611443818561131a565b905061145260208301846113a5565b939250505056fea26469706673582212203f7688de31233aca36d5676dc816ec242bf1bfc5c2905d8c3e0c06b901912ebe64736f6c63430008110033",
  "linkReferences": {},
  "deployedLinkReferences": {}
}